:0300000002162DB8
:0C162D00787FE4F6D8FD75813E0216744B
:101A4F0001290002230000022A00000225000007DE
:081A5F001C0000000000000063
:1017A500E4F528E42528FFE43428FE121A968F274D
:1017B500E527F46007741C2528F8A6270528E528E1
:1017C500D3940640DE1213F31219BFE4F528741CF6
:1017D5002528F8E6FE6003752901E5296015E52849
:1017E50075F006A42455FFEE2430FB751A01E4FDBF
:1017F5001214CF0528E528D3940640D2121877E5B0
:09180500A0B4FDFB12158D80F664
:03000B0002196572
:10196500C0E0C0D0758C73758A600524E5247002CB
:101975000523C39464E5239400400E052BE52B70E5
:0E19850002052A752300752400D0D0D0E03270
:10158D00121AAAE4F528E528D39401E528C454F0ED
:10159D0050092420FFE528240D80072420FFE5288D
:1015AD0024FEFB7D021217330528E528C394044061
:1015BD00D5751A107B3A7D027F601214CF751A1003
:1015CD007B2E7D047F381214CF751A107B687D0435
:1015DD007F481214CFE52B640A452A70160526E5BF
:1015ED002670020525C39406E5259400502FE4F5D9
:1015FD002AF52B751201751310AB26AA257D047FD4
:10160D00301216B9751201751310AB2BAA2A7D0471
:10161D007F3F1216B9E5A0B4FEBB1219BF0211D956
:1011D900E4F508F509F50A121B36E52645257022BE
:1011E900D3E52B9402E52A94005005E4F508801212
:1011F900750801AE2AAF2B7C007D6412138C8E0911
:101209008F0AC3E5269401E52594004033E5269429
:1012190003E52594005029750802AE25AF267C0701
:101229007DD012138CEF2418FBEE34FCFAAE2AAFF2
:101239002B7C007DC812138CEF2BF50AEE3AF509C9
:10124900C3E5269403E52594004033E5269406E595
:101259002594005029750803AE25AF267C0B7DB86F
:1012690012138CEF2460FBEE34F0FAAE2AAF2B7C1C
:10127900017D2C12138CEF2BF50AEE3AF509C3E523
:10128900269406E5259400400975080475090B752F
:101299000AB8E4F52AF52BF525F526AE09AF0AFCBF
:1012A9007D6412139E7C007D0A12139EED2520F5A4
:1012B90020AE09AF0A7C037DE812139EEF251FF5C6
:1012C9001F7B007A00791C1218DE7F007E28121A13
:1012D900E3E4F528E42528FFE43428FE741C2528D6
:1012E900F8E6FD121AD00528E528D3940640E5ADA5
:0812F9000AAC09AF080210A6BF
:0618DE008B0B8A0C890D42
:1018E4007F06AB0BAA0CA90D8F8275830012131A05
:1018F400C3940A4029E92FF9E43AFA12130175F066
:101904000A84E5F012137AEF7C0024FFF582EC34AC
:10191400FFF583AB0BAA0CA90D7401121347DFC2A8
:0119240022A0
:10000E000000000000000000002F000000000700AC
:10001E00070000147F147F1400242A7F2A12006226
:10002E0064081323003649552250000005030000D2
:10003E0000001C224100000041221C000014083E5A
:10004E0008140008083E0808000000A06000000820
:10005E000808080800006060000000201008040274
:10006E00003E5149453E0000427F40000042615132
:10007E004946002141454B31001814127F100027CC
:10008E0045454539003C4A4949300001710905038F
:10009E0000364949493600064949291E00003636C0
:1000AE000000000056360000000814224100001423
:1000BE001414141400004122140800020151090600
:1000CE0000324959513E007C1211127C007F494981
:1000DE004936003E41414122007F4141221C007FB2
:1000EE0049494941007F09090901003E4149497AC0
:1000FE00007F0808087F0000417F4100002040413A
:10010E003F01007F08142241007F40404040007FA5
:10011E00020C027F007F0408107F003E4141413EE9
:10012E00007F09090906003E4151215E007F091931
:10013E0029460046494949310001017F0101003F2E
:10014E004040403F001F2040201F003F4038403FAE
:10015E000063140814630007087008070061514912
:10016E00454300007F41410000552A552A550000A5
:10017E0041417F0000040201020400404040404023
:10018E00000001020400002054545478007F4844BB
:10019E00443800384444442000384444487F0038F2
:1001AE005454541800087E0901020018A4A4A47C1B
:1001BE00007F080404780000447D400000408084E5
:1001CE007D00007F102844000000417F4000007C2D
:1001DE0004180478007C0804047800384444443839
:1001EE0000FC242424180018242418FC007C080485
:1001FE00040800485454542000043F444020003C5E
:10020E004040207C001C2040201C003C4030403CE4
:10021E00004428102844001CA0A0A07C0044645474
:10022E004C441414141414140000000000000000B8
:10023E000000000000000000000000F800000000B8
:10024E00000000333000000000100C06100C0600F9
:10025E00000000000000000040C07840C078400060
:10026E00043F04043F040400007088FC08300000C2
:10027E00001820FF211E0000F008F000E01800001A
:10028E0000211C031E211E0000F0088870000000D3
:10029E001E2123241927211010160E000000000025
:1002AE000000000000000000000000E01804020042
:1002BE00000000071820400000020418E0000000B3
:1002CE000040201807000000404080F080404000B1
:1002DE000202010F01020200000000F00000000007
:1002EE000101011F010101000000000000000000DB
:1002FE0080B0700000000000000000000000000050
:10030E0000010101010101010000000000000000D8
:10031E000030300000000000000000008060180473
:10032E00006018060100000000E010080810E00050
:10033E00000F102020100F00001010F80000000019
:10034E000020203F20200000007008080888700060
:10035E0000302824222130000030088888483000E0
:10036E000018202020110E000000C02010F8000000
:10037E0000070424243F240000F808888808080099
:10038E000019212020110E0000E0108888180000AE
:10039E00000F112020110E0000380808C838080080
:1003AE000000003F00000000007088080888700000
:1003BE00001C222121221C0000E010080810E00081
:1003CE000000312222110F00000000C0C00000000A
:1003DE00000000303000000000000080000000002F
:1003EE000000806000000000000080402010080027
:1003FE0000010204081020004040404040404000F0
:10040E0004040404040404000008102040800000CA
:10041E000020100804020100007048080808F000CF
:10042E000000003036010000C030C828E810E0009F
:10043E000718272423140B000000C038E00000002A
:10044E00203C23020227382008F888888870000094
:10045E00203F202020110E00C03008080808380068
:10046E00071820202010080008F808080810E000DF
:10047E00203F202020100F0008F88888E808100080
:10048E00203F20202320180008F88888E808100054
:10049E00203F200003000000C0300808083800008C
:1004AE0007182020221E020008F808000008F8088D
:1004BE00203F210101213F20000808F80808000014
:1004CE000020203F2020000000000808F808080047
:1004DE00C08080807F00000008F888C028180800BF
:1004EE00203F20012638200008F8080000000000F8
:1004FE00203F20202020300008F8F800F8F80800EF
:10050E00203F003F003F200008F830C00008F808E8
:10051E00203F200007183F00E01008080810E000F8
:10052E000F10202020100F0008F808080808F0000F
:10053E00203F210101010000E01008080810E00032
:10054E000F18242438504F0008F8888888887000C7
:10055E00203F2000030C3020007088080808380067
:10056E000038202121221C00180808F8080818005D
:10057E000000203F2000000008F808000008F808DE
:10058E00001F202020201F000878880000C838088F
:10059E00000007380E010000F80800F80008F80007
:1005AE00033C0700073C03000818688080681808A1
:1005BE0020302C03032C30200838C800C83808001F
:1005CE000000203F2000000010080808C83808006E
:1005DE002038262120201800000000FE0202020012
:1005EE000000007F40404000000C30C000000000C2
:1005FE00000000010638C00000020202FE000000EA
:10060E00004040407F00000000000402020204008F
:10061E0000000000000000000000000000000000CC
:10062E0080808080808080800002020400000000B4
:10063E0000000000000000000000808080800000AC
:10064E000019242222223F2008F80080800000009A
:10065E00003F112020110E0000000080808000005D
:10066E00000E112020201100000000808088F8006C
:10067E00000E112020103F2000008080808000009E
:10068E00001F222222221300008080F08888881802
:10069E000020203F2020000000008080808080000D
:1006AE00006B94949493600008F8008080800000A2
:1006BE00203F210000203F2000809898000000007D
:1006CE000020203F202000000000008098980000AD
:1006DE0000C08080807F000008F8000080808000CD
:1006EE00203F24022D302000000808F800000000F2
:1006FE000020203F202000008080808080808000AD
:10070E00203F20003F20003F80800080808000003E
:10071E00203F210000203F200000808080800000CC
:10072E00001F202020201F008080008080000000FD
:10073E0080FFA12020110E0000000080808080002C
:10074E00000E112020A0FF8080808000808080001D
:10075E0020203F212000010000008080808080004A
:10076E000033242424241900008080E080800000BF
:10077E000000001F2020000080800000008080000C
:10078E00001F202020103F2080808000008080806D
:10079E0000010E30080601008080008000808080FD
:1007AE000F300C030C300F00008080008080800022
:1007BE000020312E0E31200080808000008080804D
:1007CE0080818E70180601000080808080808000FD
:1007DE000021302C2221300000000000807C02021B
:1007EE0000000000003F404000000000FF0000003D
:1007FE0000000000FF0000000002027C80000000EC
:10080E000040403F00000000000601010202040407
:10081E0000000000000000002030AC633004A4642F
:10082E003C27E40404040000000000000000000067
:10083E000000000000000000226722121220110D9D
:10084E0041817F010509300000000000000000001A
:10085E000000000000000000829292FE9292820040
:10086E00829292FE92928200000000000000000030
:10087E000000000000000000080808141412169969
:10088E0052321404080808000000000000000000A6
:10089E000000000000000000101010FF1090040473
:1008AE000404FC0404040400000000000000000026
:1008BE0000000000000000000444827F01000000E0
:1008CE0040807F00000000000000000000000000DB
:1008DE000000000000000000404040404040FF4447
:1008EE004444444444404000000000000000000026
:1008FE000000000000000000000000000000FF00EB
:10090E0000020408100000000000000000000000BB
:10091E00000000000000000080809E9292929EE0F7
:10092E00809EB2D2929E8000000000000000000067
:10093E0000000000000000000808F4949292F100FC
:10094E0001F2929494F808000000000000000000EC
:10095E000000000000000000101010FF902098888A
:10096E0088E98E8888A8980000000000000000002A
:10097E0000000000000000000242817F0000808421
:10098E004B281028478000000000000000000000E7
:10099E000000000000000000008060F88780848462
:1009AE0084FE828382808000000000000000000030
:1009BE000000000000000000010000FF0040404069
:1009CE00407F40404040000000000000000000005A
:1009DE000000000000000000101012D2565A5253B0
:1009EE00525A56D2121010000000000000000000F3
:1009FE0000000000000000004030007785858DB5B6
:100A0E00858585E7001060000000000000000000F2
:100A1E0000000000000000004030EF242480E49C21
:100A2E00105454FF547C1000000000000000000021
:100A3E00000000000000000001017F215126182750
:100A4E004445455F4545440000000000000000009D
:100A5E0000000000000000002030AC631000FE48D3
:100A6E005040FF4050480000000000000000000011
:100A7E0000000000000000002267221212007F44D6
:100A8E0042417F414244400000000000000000004F
:100A9E0000000000000000002030AC63201820246D
:100AAE00A4243FA424A46000000000000000000065
:100ABE000000000000000000226722121212888A35
:100ACE004C29180F1828C800000000000000000074
:100ADE000000000000000000808080808080808008
:100AEE0090A0E0C0C0808000000000000000000068
:100AFE0000000000000000000000000000000000E8
:100B0E0004020301010000000000000000000000CC
:100B1E0000000000000000000000000000000000C7
:100B2E0000000000000000000000000000000000B7
:100B3E0000000000000000000000000000000000A7
:100B4E000000000000000000000000000000000097
:100B5E000000000000000000008060F80740201830
:100B6E000F08C80808281800000000000000000048
:100B7E000000000000000000010000FF00100C0348
:100B8E0040807F00010618000000000000000000F9
:100B9E0000000000000000000000E28282828282DB
:100BAE00828282FE000000000000000000000000B3
:100BBE00000000000000000000003F4040404040A8
:100BCE00404040404078000000000000000000005F
:100BDE00000000000000000000FC848484FC001073
:100BEE0010101010FF101000000000000000000098
:100BFE000000000000000000003F1010103F000039
:100C0E00010640807F000000000000000000000090
:100C1E00000000000000000000F8010600F01212B3
:100C2E0012F2020202FE00000000000000000000AE
:100C3E00000000000000000000FF0000001F111166
:100C4E00111F0040807F0000000000000000000027
:100C5E00000000000000000020202020202020FFA7
:100C6E002020202020202000000000000000000096
:100C7E00000000000000000080804020100C136077
:100C8E00030C1020408080000000000000000000D7
:100C9E000000000000000000908887FC8484800221
:100CAE00F212121212F20200000000000000000008
:100CBE0000000000000000008060180708300040AF
:100CCE0045594141514D4000000000000000000018
:100CDE00000000000000000000020202020202E218
:100CEE0022120A06020000000000000000000000B0
:100CFE000000000000000000000000000040807FA7
:100D0E0000000000000000000000000000000000D5
:100D1E00000000000000000000FC0404FC00FE5275
:100D2E0052D25252525E000000000000000000003D
:100D3E000000000000000000000F04844F308F926E
:100D4E009392FE9293968000000000000000000037
:100D5E0000000000000000000414A444AF140404BA
:100D6E0004F40F24440404000000000000000000FE
:100D7E000000000000000000124984423F81413112
:100D8E000D030D31418181000000000000000000C4
:100D9E000000000000000000001088C43300BEAA4E
:100DAE00AAAAAAAABE80000000000000000000004F
:100DBE000000000000000000020100FF00020A1205
:100DCE000242827F020202000000000000000000CA
:100DDE000000000000000000202424A4FE23222096
:100DEE00FC04040404FC00000000000000000000ED
:100DFE00000000000000000010080601FF01068040
:100E0E00631901010933C00000000000000000005A
:100E1E000000000000000000804020908886808046
:100E2E0080838C1020408000000000000000000035
:100E3E000000000000000000008040201807004065
:100E4E0080403F0000000000000000000000000095
:100E5E000000000000000000000000E0000000FFA5
:100E6E000000002040800000000000000000000094
:100E7E000000000000000000080403000040807F16
:100E8E000000000000010E00000000000000000045
:100E9E000000000000000000808080808080808044
:100EAE0080808080808080000000000000000000B4
:100EBE000000000000000000000000000000000024
:100ECE000000000000000000000000000000000014
:100EDE000000000000000000404020205048444325
:100EEE004448502020404000000000000000000058
:100EFE000000000000000000000242E2524A46429A
:100F0E0042425262C20200000000000000000000D7
:100F1E0000000000000000000000FE02121212F29B
:100F2E0092929292921212000000000000000000B5
:100F3E00000000000000000080601F8040201807A5
:100F4E00004080403F000000000000000000000054
:100F5E000000000000000000100C24A4A4A4A5F6BC
:100F6E00A4A4A4A424140C0000000000000000009F
:100F7E000000000000000000020202FA4A4A4A4F36
:100F8E004A4A4AFA02020200000000000000000075
:100F9E00000000000000000040404444546445C678
:100FAE00446454444440400000000000000000002F
:100FBE00000000000000000000040404040404FF0C
:100FCE0004040404040400000000000000000000FB
:100FDE000000000000000000848484849F8484F458
:100FEE0084849F848484840000000000000000003C
:100FFE000000000000000000000000FC44444447D4
:10100E00444444FC0000000000000000000000000A
:10101E000000000000000000040404FC84848586A7
:10102E008484848484040400000000000000000016
:10103E000000000000000000403800003C4040422C
:10104E004C4040700408300000000000000000001A
:10105E00000000000000000000001011161010F03B
:10106E00101014131000000000000000000000001B
:10107E0000000000000000008181414121110D039C
:10108E000D1121414181810000000000000000008F
:08109E0000000000000000004A
:091B2D00D290D291C291C2902223
:07000300D290C291D29122BC
:0B1AF4001219F0121AFFAF041219F0D3
:051AFF00D290C290220C
:0719E900AC07121B2D7F78F3
:1019F000C290E4FEAD07530580BD8004D291800201
:0E1A0000C291EF25E0FFD290C2900EBE08E624
:011A0E0022B5
:0E1B04001219E9121AFFE4FF121AF40200038C
:0E1B12001219E9121AFF7F40121AF4020003A2
:101A0F00121A20E4FDFCFFFE121A207F10E4FDFCE9
:011A1F00FEC8
:101A2000AB07AA06ED4C6003021B12AF03121B04A6
:011A30002293
:101A3100D3EF9400EE940040147D657C18ED1D7089
:0D1A4100011CED4C70F7EF1F70E61E80E3F6
:011A4E002275
:101A8000EF1FAA0670011E4A600BE4FDEDC3947BB4
:051A900050EE0D80F78F
:011A9500222E
:10199300A907ED24B0FFE433FEE4FDFC121A20E9AD
:1019A30054F0C4540F7E004410FFE4FDFC121A20CF
:0C19B300E9540FFF7E00E4FDFC021A2046
:1019BF00E4F9E924B0FFE433FEE4FDFC121A0FE46E
:1019CF00F50E7D017C00E4FFFE121A20050EE50ED8
:0919DF00C3948040ED09B908D958
:0119E80022DC
:0414CF008F178D18CE
:1014D300E4F51BF9EB24E0F51BE517D3947F4007F4
:1014E300E4F51705180518E51A64107069AD18AF0F
:1014F30017121993E4F975F010E51BA429F582E49A
:1015030035F0F583E5822436F582E5833402F583ED
:10151300E493FF7E007D017C00121A2009B908D6EE
:10152300E51804FDAF17121993E4F975F010E51BE4
:10153300A429F582E435F0F583E582243EF582E5BE
:10154300833402F583E493FF7E007D017C00121A4D
:101553002009B908D622AD18AF17121993E4F9750B
:10156300F006E51BA4240EF582E5F03400F583E5CF
:101573008229F582E43583F583E493FF7E007D01C0
:091583007C00121A2009B906D6F9
:01158C00223C
:041A68008F17A90526
:101A6C007F017E00AD0119ED6009AD177C001213EA
:031A7C008C80F16A
:011A7F002244
:0816B9008F0E8D0F8A108B11BA
:1016C100E4F516F514E514C395125065C3E51295BA
:1016D1001414FD7F0A121A68AC10AD11CFCDCFCE14
:1016E100CCCE12139E7C007D0A12139E8D15E51639
:1016F1007023E51214FFE514C39F5019E51570120C
:10170100E513C3138514F0A4250EFF85131A7B205E
:101711008016751601E513C3138514F0A4250EFF79
:10172100E5152430FB85131AAD0F1214CF05148073
:011731009423
:011732002294
:0A1925008F378D388B398A3A893BE1
:10192F00E4F53DAB39AA3AA93B853D827583001298
:10193F00131AFB6020853C1AAD38AF371214CF74E1
:10194F00082537F537D394784007E4F53705380580
:05195F0038053D80CEBB
:011964002260
:061733008F0E8D0F8B10DC
:10173900E4F511121993E4F975F040E510A4242693
:10174900F582E5F03408F583E58229F582E43583ED
:10175900F583E493FF7E007D017C00121A200511B8
:1017690009B910D4E50F04FDAF0E121993E4F97508
:10177900F040E510A42446F582E5F03408F583E548
:101789008229F582E43583F583E493FF7E007D01A8
:0B1799007C00121A20051109B910D4C1
:0117A4002222
:04180E008F2C8B2E62
:10181200E4F533F534E52F5407700BE52F1313135A
:10182200541FF536800AE52F131313541F04F5369F
:101832008D36E536C3952F503BAD36AF2C1219933A
:10184200852C35E535C3952E5026AB30AA31A93209
:101852000534E534AE337002053314F5828E8312FB
:10186200131AFF7E007D017C00121A20053580D3F9
:04187200053680BEF9
:01187600224F
:1013F300E4FDFC7FAEFE121A0F7F40121A1CE4FDBF
:10140300FC7FB0FE121A20E4FDFC7F81FE121A203D
:10141300E4FDFC7FFFFE121A20E4FDFC7FA1FE1217
:101423001A20E4FDFC7FA6FE121A20E4FDFC7FA82F
:10143300FE121A20E4FDFC7F3FFE121A20E4FDFC9D
:101443007FC8FE121A20E4FDFC7FD3FE121A20E4AB
:10145300FDFCFFFE121A20E4FDFC7FD5FE121A20CC
:10146300E4FDFC7F80FE121A20E4FDFC7FD8FE120F
:101473001A20E4FDFC7F05FE121A20E4FDFC7FD94F
:10148300FE121A20E4FDFC7FF1FE121A20E4FDFC9B
:101493007FDAFE121A20E4FDFC7F12FE121A20E40A
:1014A300FDFC7FDBFE121A20E4FDFC7F30FE121AE6
:1014B30020E4FDFC7F8DFE121A20E4FDFC7F14FE68
:0C14C300121A20E4FDFC7FAFFE021A208C
:101AAA005389F0438901758C73758A60D28CD2A9E7
:031ABA00D2AF2286
:071B3600C28CC2A9C2AF225C
:101ABD007B017C007D0A12139EEF4E60030B80F2BA
:021ACD00AF0365
:011ACF0022F4
:10187700E4F53EE53EC454F02418FFAB3E7D02126A
:101887001733E53EC454F02410FFE53E2405FB7DE5
:1018970004121733053EE53ED3940440D67B0A7DF8
:1018A700047F60121733E5A0F4600280157B0B7D7F
:1018B700067F381217337F0A7E00121A31E5A0F42B
:1018C70060030219BF7B0C7D067F381217337F0A2E
:0718D7007E00121A3180CFE0
:1010A6008F0B8C0C8D0D1219BF7B0D7D037F1012DB
:1010B60017337B157D037F201217337B167D037F45
:1010C600301217337B137D037F401217337B177D56
:1010D600037F501217337B187D037F601217337519
:1010E6001A107B3A7D037F701214CFAF0DAE0C122F
:1010F6001ABD8F12751310AB0DAA0C7D057F301229
:1011060016B9E50B14603214605E1460781470032F
:101116000211B1240460030211D8E4F53EE53EC491
:1011260054F02418FFE53E240FFB7D01121733050A
:101136003EE53ED3940440E5227B197D017F2012D3
:101146001733E4FB7D017F301217337B1A7D017F55
:10115600401217337B1B7D017F50121733751A100F
:101166007B7E7D017F6080677B1C7D017F3012174F
:10117600337B1D7D017F40121733751A107B217D4D
:10118600017F50804A7B1E7D017F281217337B1F0B
:101196007D017F381217337B137D017F4812173389
:1011A600751A107B7E7D017F5880247B207D017F10
:1011B600281217337B217D017F381217337B137D6D
:1011C600017F48121733751A107B287D017F58124C
:0311D60014CF2211
:0D1B2000E4F5E7F5E5F5E675E380F5E42270
:071B3D0075E64675E6B922CA
:101A960075E78175E5018FE48EE3121B3D00AFE229
:031AA600121B20F0
:011AA900221A
:101AD00075E78175E5028FE48EE38DE2121B3D0010
:031AE000021B20C6
:101AE30075E78175E5038FE48EE3121B3D00021B4E
:011AF30020D2
:101639000217A5E493A3F8E493A34003F68001F20B
:1016490008DFF48029E493A3F85407240CC8C333B2
:10165900C4540F4420C8834004F456800146F6DF81
:10166900E4800B0102040810204080901A4FE47EA8
:10167900019360BCA3FF543F30E509541FFEE49376
:10168900A360010ECF54C025E060A840B8E493A33D
:10169900FAE493A3F8E493A3C8C582C8CAC583CA68
:1016A900F0A3C8C582C8CAC583CADFE9DEE780BE20
:011A6700007E
:10130100BB010689828A83E0225002E722BBFE02EA
:09131100E32289828A83E493221D
:10131A00BB010CE58229F582E5833AF583E0225088
:10132A0006E92582F8E622BBFE06E92582F8E222D2
:0D133A00E58229F582E5833AF583E49322EC
:10134700BB010FF8E58229F582E5833AF583E028AA
:10135700F0225009C58229F8E58226F622BBFE094C
:10136700C58229F8E22582F222F8EA2583F583E986
:0313770093282296
:10137A00BB010689828A83F0225002F722BBFE0152
:02138A00F3224C
:10138C00EF8DF0A4A8F0CF8CF0A428CE8DF0A42E75
:02139C00FE222F
:10139E00BC000BBE0029EF8DF084FFADF022E4CC33
:1013AE00F875F008EF2FFFEE33FEEC33FCEE9DECFC
:1013BE00984005FCEE9DFE0FD5F0E9E4CEFD22ED42
:1013CE00F8F5F0EE8420D21CFEADF075F008EF2F8C
:1013DE00FFED33FD4007985006D5F0F222C398FD7D
:0513EE000FD5F0EA221A
:00000001FF
