:03000000020E9855
:0C0E9800787FE4F6D8FD758138020EDF8B
:0C13C100021700000221000002190000C9
:100F240012133FE4F520E520C454F02420FFE5200B
:100F3400240DFB7D0212101C0520E520C3940440FF
:100F4400E57514107B3A7D027F60120D46E522643C
:100F54000A4521700D051AE51A70020519E4F521F8
:100F6400F522750C01750D10AB1AAA197D047F309A
:100F7400120FA27514107B2E7D047F38120D467556
:100F84000C01750D10AB22AA217D047F3F120FA224
:0E0F94007514107B687D047F48120D4680AFF7
:0E139700120C6612128E1210F7120F2480FB39
:03000B0002119E41
:10119E00C0E0C0D0758C73758A600518E5187002B2
:1011AE000517C39410E5179427400E0522E522700B
:0E11BE00020521751700751800D0D0D0E03260
:10000E000000000000000000002F000000000700AC
:10001E00070000147F147F1400242A7F2A12006226
:10002E0064081323003649552250000005030000D2
:10003E0000001C224100000041221C000014083E5A
:10004E0008140008083E0808000000A06000000820
:10005E000808080800006060000000201008040274
:10006E00003E5149453E0000427F40000042615132
:10007E004946002141454B31001814127F100027CC
:10008E0045454539003C4A4949300001710905038F
:10009E0000364949493600064949291E00003636C0
:1000AE000000000056360000000814224100001423
:1000BE001414141400004122140800020151090600
:1000CE0000324959513E007C1211127C007F494981
:1000DE004936003E41414122007F4141221C007FB2
:1000EE0049494941007F09090901003E4149497AC0
:1000FE00007F0808087F0000417F4100002040413A
:10010E003F01007F08142241007F40404040007FA5
:10011E00020C027F007F0408107F003E4141413EE9
:10012E00007F09090906003E4151215E007F091931
:10013E0029460046494949310001017F0101003F2E
:10014E004040403F001F2040201F003F4038403FAE
:10015E000063140814630007087008070061514912
:10016E00454300007F41410000552A552A550000A5
:10017E0041417F0000040201020400404040404023
:10018E00000001020400002054545478007F4844BB
:10019E00443800384444442000384444487F0038F2
:1001AE005454541800087E0901020018A4A4A47C1B
:1001BE00007F080404780000447D400000408084E5
:1001CE007D00007F102844000000417F4000007C2D
:1001DE0004180478007C0804047800384444443839
:1001EE0000FC242424180018242418FC007C080485
:1001FE00040800485454542000043F444020003C5E
:10020E004040207C001C2040201C003C4030403CE4
:10021E00004428102844001CA0A0A07C0044645474
:10022E004C441414141414140000000000000000B8
:10023E000000000000000000000000F800000000B8
:10024E00000000333000000000100C06100C0600F9
:10025E00000000000000000040C07840C078400060
:10026E00043F04043F040400007088FC08300000C2
:10027E00001820FF211E0000F008F000E01800001A
:10028E0000211C031E211E0000F0088870000000D3
:10029E001E2123241927211010160E000000000025
:1002AE000000000000000000000000E01804020042
:1002BE00000000071820400000020418E0000000B3
:1002CE000040201807000000404080F080404000B1
:1002DE000202010F01020200000000F00000000007
:1002EE000101011F010101000000000000000000DB
:1002FE0080B0700000000000000000000000000050
:10030E0000010101010101010000000000000000D8
:10031E000030300000000000000000008060180473
:10032E00006018060100000000E010080810E00050
:10033E00000F102020100F00001010F80000000019
:10034E000020203F20200000007008080888700060
:10035E0000302824222130000030088888483000E0
:10036E000018202020110E000000C02010F8000000
:10037E0000070424243F240000F808888808080099
:10038E000019212020110E0000E0108888180000AE
:10039E00000F112020110E0000380808C838080080
:1003AE000000003F00000000007088080888700000
:1003BE00001C222121221C0000E010080810E00081
:1003CE000000312222110F00000000C0C00000000A
:1003DE00000000303000000000000080000000002F
:1003EE000000806000000000000080402010080027
:1003FE0000010204081020004040404040404000F0
:10040E0004040404040404000008102040800000CA
:10041E000020100804020100007048080808F000CF
:10042E000000003036010000C030C828E810E0009F
:10043E000718272423140B000000C038E00000002A
:10044E00203C23020227382008F888888870000094
:10045E00203F202020110E00C03008080808380068
:10046E00071820202010080008F808080810E000DF
:10047E00203F202020100F0008F88888E808100080
:10048E00203F20202320180008F88888E808100054
:10049E00203F200003000000C0300808083800008C
:1004AE0007182020221E020008F808000008F8088D
:1004BE00203F210101213F20000808F80808000014
:1004CE000020203F2020000000000808F808080047
:1004DE00C08080807F00000008F888C028180800BF
:1004EE00203F20012638200008F8080000000000F8
:1004FE00203F20202020300008F8F800F8F80800EF
:10050E00203F003F003F200008F830C00008F808E8
:10051E00203F200007183F00E01008080810E000F8
:10052E000F10202020100F0008F808080808F0000F
:10053E00203F210101010000E01008080810E00032
:10054E000F18242438504F0008F8888888887000C7
:10055E00203F2000030C3020007088080808380067
:10056E000038202121221C00180808F8080818005D
:10057E000000203F2000000008F808000008F808DE
:10058E00001F202020201F000878880000C838088F
:10059E00000007380E010000F80800F80008F80007
:1005AE00033C0700073C03000818688080681808A1
:1005BE0020302C03032C30200838C800C83808001F
:1005CE000000203F2000000010080808C83808006E
:1005DE002038262120201800000000FE0202020012
:1005EE000000007F40404000000C30C000000000C2
:1005FE00000000010638C00000020202FE000000EA
:10060E00004040407F00000000000402020204008F
:10061E0000000000000000000000000000000000CC
:10062E0080808080808080800002020400000000B4
:10063E0000000000000000000000808080800000AC
:10064E000019242222223F2008F80080800000009A
:10065E00003F112020110E0000000080808000005D
:10066E00000E112020201100000000808088F8006C
:10067E00000E112020103F2000008080808000009E
:10068E00001F222222221300008080F08888881802
:10069E000020203F2020000000008080808080000D
:1006AE00006B94949493600008F8008080800000A2
:1006BE00203F210000203F2000809898000000007D
:1006CE000020203F202000000000008098980000AD
:1006DE0000C08080807F000008F8000080808000CD
:1006EE00203F24022D302000000808F800000000F2
:1006FE000020203F202000008080808080808000AD
:10070E00203F20003F20003F80800080808000003E
:10071E00203F210000203F200000808080800000CC
:10072E00001F202020201F008080008080000000FD
:10073E0080FFA12020110E0000000080808080002C
:10074E00000E112020A0FF8080808000808080001D
:10075E0020203F212000010000008080808080004A
:10076E000033242424241900008080E080800000BF
:10077E000000001F2020000080800000008080000C
:10078E00001F202020103F2080808000008080806D
:10079E0000010E30080601008080008000808080FD
:1007AE000F300C030C300F00008080008080800022
:1007BE000020312E0E31200080808000008080804D
:1007CE0080818E70180601000080808080808000FD
:1007DE000021302C2221300000000000807C02021B
:1007EE0000000000003F404000000000FF0000003D
:1007FE0000000000FF0000000002027C80000000EC
:10080E000040403F00000000000601010202040407
:10081E0000000000000000002030AC633004A4642F
:10082E003C27E40404040000000000000000000067
:10083E000000000000000000226722121220110D9D
:10084E0041817F010509300000000000000000001A
:10085E000000000000000000829292FE9292820040
:10086E00829292FE92928200000000000000000030
:10087E000000000000000000080808141412169969
:10088E0052321404080808000000000000000000A6
:10089E000000000000000000101010FF1090040473
:1008AE000404FC0404040400000000000000000026
:1008BE0000000000000000000444827F01000000E0
:1008CE0040807F00000000000000000000000000DB
:1008DE000000000000000000404040404040FF4447
:1008EE004444444444404000000000000000000026
:1008FE000000000000000000000000000000FF00EB
:10090E0000020408100000000000000000000000BB
:10091E00000000000000000080809E9292929EE0F7
:10092E00809EB2D2929E8000000000000000000067
:10093E0000000000000000000808F4949292F100FC
:10094E0001F2929494F808000000000000000000EC
:10095E000000000000000000101010FF902098888A
:10096E0088E98E8888A8980000000000000000002A
:10097E0000000000000000000242817F0000808421
:10098E004B281028478000000000000000000000E7
:10099E000000000000000000008060F88780848462
:1009AE0084FE828382808000000000000000000030
:1009BE000000000000000000010000FF0040404069
:1009CE00407F40404040000000000000000000005A
:1009DE000000000000000000101012D2565A5253B0
:1009EE00525A56D2121010000000000000000000F3
:1009FE0000000000000000004030007785858DB5B6
:100A0E00858585E7001060000000000000000000F2
:100A1E0000000000000000004030EF242480E49C21
:100A2E00105454FF547C1000000000000000000021
:100A3E00000000000000000001017F215126182750
:100A4E004445455F4545440000000000000000009D
:100A5E0000000000000000002030AC631000FE48D3
:100A6E005040FF4050480000000000000000000011
:100A7E0000000000000000002267221212007F44D6
:100A8E0042417F414244400000000000000000004F
:100A9E0000000000000000002030AC63201820246D
:100AAE00A4243FA424A46000000000000000000065
:100ABE000000000000000000226722121212888A35
:100ACE004C29180F1828C800000000000000000074
:100ADE000000000000000000808080808080808008
:100AEE0090A0E0C0C0808000000000000000000068
:100AFE0000000000000000000000000000000000E8
:100B0E0004020301010000000000000000000000CC
:100B1E0000000000000000000000000000000000C7
:100B2E0000000000000000000000000000000000B7
:100B3E0000000000000000000000000000000000A7
:100B4E000000000000000000000000000000000097
:100B5E000000000000000000008060F80740201830
:100B6E000F08C80808281800000000000000000048
:100B7E000000000000000000010000FF00100C0348
:100B8E0040807F00010618000000000000000000F9
:100B9E0000000000000000000000E28282828282DB
:100BAE00828282FE000000000000000000000000B3
:100BBE00000000000000000000003F4040404040A8
:100BCE00404040404078000000000000000000005F
:100BDE0000000000000000002030AC633004A4646C
:100BEE003C27E404040400000000000000000000A4
:100BFE000000000000000000226722121220110DDA
:100C0E0041817F0105093000000000000000000056
:100C1E000000000000000000829292FE929282007C
:100C2E00829292FE9292820000000000000000006C
:100C3E0000000000000000000808081414121699A5
:100C4E0052321404080808000000000000000000E2
:080C5E0000000000000000008E
:1012CC00EF4E60157D087C07ED1DAA0470011C4AC9
:0912DC0070F6EF1F70EA1E80E7B6
:0112E50022E6
:0913DB00D290D291C291C290227D
:07000300D290C291D29122BC
:0B13870012122B121392AF0412122B53
:05139200D290C2902280
:07122400AC071213DB7F7819
:10122B00C290E4FEAD07530580BD8004D2918002CD
:0E123B00C291EF25E0FFD290C2900EBE08E6F1
:011249002282
:0E13A500121224121392E4FF121387020003A7
:0E13B3001212241213927F40121387020003BD
:1011CC00E924B0FFE433FEE4FDFC1211E7E4FDFC7E
:0B11DC00FFFE1211E77F10E4FDFCFE97
:1011E700AB07AA06ED4C60030213B3AF031213A5B6
:0111F70022D5
:02124A008F35DE
:10124C00E4F91211CCE4F536AF357E007D017C005B
:10125C001211E70536E536C3948040EC09B908E273
:01126C00225F
:1012AE00D3EF9400EE940040147D657C18ED1D7014
:0D12BE00011CED4C70F7EF1F70E61E80E381
:0112CB002200
:10131500EF1FAA0670011E4A600BE4FDEDC3947B26
:0513250050EE0D80F701
:01132A0022A0
:1011F800A907ED24B0FFE433FEE4FDFC1211E7E992
:1012080054F0C4540F7E004410FFE4FDFC1211E7B3
:0C121800E9540FFF7E00E4FDFC0211E72A
:1012FE007F8D1211E3E4FDFC7F14FE1211E7E4FD75
:07130E00FC7FAFFE0211E7B6
:10136500E4FDFC7F8D1211DDE4FDFC7FAEFE021174
:01137500E790
:10128E00E4F91211CCE4F5087D017C00E4FFFE12B6
:0F129E0011E70508E508C3948040ED09B908E39E
:0112AD00221E
:10126D00E4F91211CCE4F5377D017C007F017E009D
:10127D001211E70537E537C3948040EC09B908E250
:01128D00223E
:040D46008F118D126A
:100D4A00E4F515F9EB24E0F515E511D3947F400796
:100D5A00E4F51105120512E51464107069AD12AFBD
:100D6A00111211F8E4F975F010E515A429F582E4D9
:100D7A0035F0F583E5822436F582E5833402F5837E
:100D8A00E493FF7E007D017C001211E709B908D6C1
:100D9A00E51204FDAF111211F8E4F975F010E5152A
:100DAA00A429F582E435F0F583E582243EF582E54F
:100DBA00833402F583E493FF7E007D017C001211E7
:100DCA00E709B908D622AD12AF111211F8E4F97584
:100DDA00F006E515A4240EF582E5F03400F583E566
:100DEA008229F582E43583F583E493FF7E007D0151
:090DFA007C001211E709B906D6CC
:010E030022CC
:0412E6008F11A905B6
:1012EA007F017E00AD0119ED6009AD117C00120E7F
:0312FA003180F14F
:0112FD0022CE
:080FA2008F088D098A0A8B0BF0
:100FAA00E4F510F50EE50EC3950C5065C3E50C95F6
:100FBA000E14FD7F0A1212E6AC0AAD0BCFCDCFCECE
:100FCA00CCCE120E437C007D0A120E438D0FE51023
:100FDA007023E50C14FFE50EC39F5019E50F70123C
:100FEA00E50DC313850EF0A42508FF850D147B209B
:100FFA008016751001E50DC313850EF0A42508FFB0
:10100A00E50F2430FB850D14AD09120D46050E803F
:01101A009441
:01101B0022B2
:0A115E008F2E8D2F8B308A318932DD
:10116800E4F534AB30AA31A9328534827583001294
:101178000E04FB6020853314AD2FAF2E120D46747C
:1011880008252EF52ED394784007E4F52E052F0573
:051198002F053480CE9C
:01119D00222F
:06101C008F088D098B0A0C
:10102200E4F50B1211F8E4F975F040E50AA4242660
:10103200F582E5F03408F583E58229F582E435830B
:10104200F583E493FF7E007D017C001211E7050B1E
:1010520009B910D4E50904FDAF081211F8E4F975D5
:10106200F040E50AA42446F582E5F03408F583E56C
:101072008229F582E43583F583E493FF7E007D01C6
:0B1082007C001211E7050B09B910D427
:01108D002240
:04108E008F238B25FC
:10109200E4F52AF52BE5265407700BE52613131306
:1010A200541FF52D800AE526131313541F04F52D42
:1010B2008D2DE52DC39526503BAD2DAF231211F892
:1010C20085232CE52CC395255026AB27AA28A929D0
:1010D200052BE52BAE2A7002052A14F5828E8312A7
:1010E2000E04FF7E007D017C001211E7052C80D3E7
:0410F200052D80BE8A
:0110F60022D7
:100C6600E4FDFC7FAEFE1211D6E4FDFC7F40FE12D1
:100C760011E7E4FDFC7FB0FE1211E7E4FDFC7F8185
:100C8600FE1211E7E4FDFC7FFFFE1211E7E4FDFC16
:100C96007FA1FE1211E7E4FDFC7FA6FE1211E7E438
:100CA600FDFC7FA8FE1211E7E4FDFC7F3FFE12115A
:100CB600E7E4FDFC7FC8FE1211E7E4FDFC7FD3FEEE
:100CC6001211E7E4FDFCFFFE1211E7E4FDFC7FD5FF
:100CD600FE1211E7E4FDFC7F80FE1211E7E4FDFC45
:100CE6007FD8FE1211E7E4FDFC7F05FE1211E7E452
:100CF600FDFC7FD9FE1211E7E4FDFC7FF1FE121127
:100D0600E7E4FDFC7FDAFE1211E7E4FDFC7F12FE4C
:100D16001211E7E4FDFC7FDBFE1211E7E4FDFC7F28
:100D260030FE1211E7E4FDFC7F8DFE1211E7E4FDB3
:100D3600FC7F14FE1211E7E4FDFC7FAFFE0211E713
:10133F005389F0438901758C73758A60D28CD2A959
:03134F00D2AF22F8
:1010F700E4F538E538C454F02418FFAB387D011205
:10110700101CE538C454F02410FFE5382405FB7D96
:101117000312101C0538E538D3940440D67B0A7DAA
:10112700037F6012101CE5A0F4600280157B0B7D25
:10113700057F3812101C7F0F7E001212AEE5A0F457
:10114700600302128E7B0C7D057F3812101C7F0F07
:071157007E001212AE80CFF2
:0D13CE00E4F5E7F5E5F5E675E380F5E422CA
:0713E40075E64675E6B9222B
:10132B0075E78175E5018FE48EE31213E400AFE2FC
:03133B001213CEBC
:01133E00228C
:1013520075E78175E5028FE48EE38DE21213E400F6
:031362000213CEA5
:1013760075E78175E5038FE48EE31213E40002132B
:01138600CE98
:100EA400021397E493A3F8E493A34003F68001F2BA
:100EB40008DFF48029E493A3F85407240CC8C3334F
:100EC400C4540F4420C8834004F456800146F6DF1E
:100ED400E4800B01020408102040809013C1E47EDA
:100EE400019360BCA3FF543F30E509541FFEE49313
:100EF400A360010ECF54C025E060A840B8E493A3DA
:100F0400FAE493A3F8E493A3C8C582C8CAC583CA04
:100F1400F0A3C8C582C8CAC583CADFE9DEE780BEBC
:0113CD00001F
:100E0400BB010CE58229F582E5833AF583E02250A3
:100E140006E92582F8E622BBFE06E92582F8E222ED
:0D0E2400E58229F582E5833AF583E4932207
:100E3100EF8DF0A4A8F0CF8CF0A428CE8DF0A42ED5
:020E4100FE228F
:100E4300BC000BBE0029EF8DF084FFADF022E4CC93
:100E5300F875F008EF2FFFEE33FEEC33FCEE9DEC5C
:100E6300984005FCEE9DFE0FD5F0E9E4CEFD22EDA2
:100E7300F8F5F0EE8420D21CFEADF075F008EF2FEC
:100E8300FFED33FD4007985006D5F0F222C398FDDD
:050E93000FD5F0EA227A
:00000001FF
