:03000000021A677A
:0C1A6700787FE4F6D8FD75812D021AAEE0
:101E6B00011100011500011200020F00000708000C
:061E7B0000000000000061
:091FC400AF127E00121956EF2243
:101B7A00E4F514121BDC600774082514F8A6130593
:101B8A0014E514D3940640EB7F007E2C121F468F77
:101B9A0013E513F46003851311121AF3121E1112BE
:101BAA001BED121D77E5A0B4FD031219C9E5A0B417
:101BBA00FBF3121BED121192E4F514E514D394060B
:101BCA0050E3121BDC600774082514F8A6130514E9
:101BDA0080E9E42514FFE43428FE121F468F13E53A
:0D1BEA0013F4227B007A007908121CC0223F
:03000B00021E953D
:101E9500C0E0C0D0758C73758A600510E5107002BE
:101EA500050FC3940AE50F940040080515750F004A
:081EB500751000D0D0D0E0321E
:1019C900121F5AE4F514E514D39401E514C454F034
:1019D90050092420FFE514240D80072420FFE51475
:1019E90024FEFB7D02121DDF0514E514C394044097
:1019F900D5752B107B3A7D027F60121BF7752B1072
:101A09007B2E7D047F38121BF7752B107B3B7D04E1
:101A19007F48121BF7E515B4050674032511F51166
:101A2900E515B40A10051205110511E512C394064E
:101A39005029E4F515E5122430FB752B107D047F40
:101A490030121BF7E5152430FB752B107D047F3F01
:0E1A5900121BF7E5A0B4FEBD121E110217D835
:1017D800E4F521F522F523121FD6E512701AE51556
:1017E800D394025005E4F521800E752101E51575A5
:1017F800F064A485F022F523E512C394014026E5A0
:1018080012940350207521027C077DD0121FC42436
:1018180018FDEE34FCFCE51575F0C8A4AEF02DF506
:1018280023EE3CF522E512C39403402AE512940600
:1018380050247521037C0B7DB8121FC42460FBEE75
:1018480034F0FAAF157E007C017D2C121956EF2B6F
:10185800F523EE3AF522E512C394064009752104F2
:1018680075220B7523B8E4F515F512AE22AF23FCEB
:101878007D641219687C007D0A121968ED250CF543
:101888000CAE22AF237C037DE8121968EF250BF517
:101898000B75140674082514F8E6FFC3940A400D66
:1018A800EF75F00A84A6F074072514F806D514E439
:1018B8007F007E28121F80E4F514E42514FFE43429
:1018C80028FE74082514F8E6FD121F6D0514E514AA
:1018D800D3940640E57F007E2C121F80AD117F0057
:0E18E8007E2C121F6DAD23AC22AF2102169391
:10000E00003E5149453E0000427F40000042615192
:10001E004946002141454B31001814127F1000272C
:10002E0045454539003C4A494930000171090503EF
:10003E0000364949493600064949291E000000008C
:10004E00000000000000000000000000000000F8AA
:10005E0000000000000000333000000000100C060D
:10006E00100C0600000000000000000040C07840A8
:10007E00C0784000043F04043F040400007088FC74
:10008E0008300000001820FF211E0000F008F000CC
:10009E00E018000000211C031E211E0000F008883D
:1000AE00700000001E2123241927211010160E00A7
:1000BE00000000000000000000000000000000E052
:1000CE001804020000000007182040000002041867
:1000DE00E00000000040201807000000404080F0C3
:1000EE00804040000202010F01020200000000F0F9
:1000FE00000000000101011F0101010000000000CD
:10010E000000000080B07000000000000000000041
:10011E0000000000000101010101010100000000CA
:10012E000000000000303000000000000000000061
:10013E0080601804006018060100000000E010083E
:10014E000810E000000F102020100F00001010F813
:10015E00000000000020203F202000000070080852
:10016E0008887000003028242221300000300888D2
:10017E00884830000018202020110E000000C020FA
:10018E0010F8000000070424243F240000F808881B
:10019E00880808000019212020110E0000E01088A8
:1001AE0088180000000F112020110E0000380808DA
:1001BE00C83808000000003F0000000000708808EA
:1001CE0008887000001C222121221C0000E010086B
:1001DE000810E0000000312222110F00000000C0C4
:1001EE00C0000000000000303000000008F8008061
:1001FE0080800000203F210000203F2000060101EA
:10020E000202040400000000000000002030AC6375
:10021E003004A4643C27E404040400000000000041
:10022E000000000000000000000000002267221203
:10023E001220110D41817F010509300000000000E0
:10024E00000000000000000000000000829292FEFC
:10025E0092928200829292FE9292820000000000A0
:10026E000000000000000000000000000808081454
:10027E0014121699523214040808080000000000E7
:10028E00000000000000000000000000101010FF31
:10029E00109004040404FC04040404000000000094
:1002AE000000000000000000000000000444827FF7
:1002BE000100000040807F000000000000000000F0
:1002CE000000000000000000000000004040404020
:1002DE004040FF4444444444444040000000000079
:1002EE000000000000000000000000000000000000
:1002FE000000FF00000204081000000000000000D3
:10030E0000000000000000000000000080809E92AF
:10031E0092929EE0809EB2D2929E800000000000DB
:10032E000000000000000000000000000808F49427
:10033E009292F10001F2929494F8080000000000ED
:10034E00000000000000000000000000101010FF70
:10035E009020988888E98E8888A898000000000070
:10036E000000000000000000000000000242817F3B
:10037E00000080844B2810284780000000000000F9
:10038E00000000000000000000000000008060F887
:10039E008780848484FE8283828080000000000037
:1003AE00000000000000000000000000010000FF3F
:1003BE0000404040407F40404040000000000000B0
:1003CE00000000000000000000000000101012D21B
:1003DE00565A5253525A56D21210100000000000B4
:1003EE000000000000000000000000004030007718
:1003FE0085858DB5858585E70010600000000000BD
:10040E000000000000000000000000004030EF245B
:10041E002480E49C105454FF547C10000000000013
:10042E0000000000000000000000000001017F211C
:10043E00512618274445455F4545440000000000FD
:10044E000000000000000000000000002030AC633F
:10045E001000FE485040FF405048000000000000D1
:10046E0000000000000000000000000022672212C1
:10047E0012007F4442417F41424440000000000090
:10048E000000000000000000000000002030AC63FF
:10049E0020182024A4243FA424A4600000000000FF
:1004AE000000000000000000000000002267221281
:1004BE001212888A4C29180F1828C8000000000054
:1004CE00000000000000000000000000808080801E
:1004DE008080808090A0E0C0C0808000000000007E
:1004EE0000000000000000000000000000000000FE
:1004FE0000000000040203010100000000000000E3
:10050E0000000000000000000000000000000000DD
:10051E0000000000000000000000000000000000CD
:10052E0000000000000000000000000000000000BD
:10053E0000000000000000000000000000000000AD
:10054E00000000000000000000000000008060F8C5
:10055E00074020180F08C8080828180000000000DF
:10056E00000000000000000000000000010000FF7D
:10057E0000100C0340807F000106180000000000F0
:10058E000000000000000000000000000000E282F9
:10059E0082828282828282FE0000000000000000C1
:1005AE0000000000000000000000000000003F40BE
:1005BE004040404040404040407800000000000075
:1005CE0000000000000000000000000000FC848419
:1005DE0084FC001010101010FF101000000000001E
:1005EE00000000000000000000000000003F10109E
:1005FE00103F0000010640807F0000000000000058
:10060E0000000000000000000000000000F80106DD
:10061E0000F0121212F2020202FE000000000000B0
:10062E0000000000000000000000000000FF0000BD
:10063E00001F1111111F0040807F000000000000FC
:10064E00000000000000000000000000202020201C
:10065E00202020FF2020202020202000000000004D
:10066E00000000000000000000000000808040201C
:10067E00100C1360030C102040808000000000005E
:10068E00000000000000000000000000908887FCC1
:10069E0084848002F212121212F202000000000094
:1006AE00000000000000000000000000806018073D
:1006BE000830004045594141514D400000000000B6
:1006CE000000000000000000000000000002020216
:1006DE00020202E222120A060200000000000000DE
:1006EE0000000000000000000000000000000000FC
:1006FE000040807F000000000000000000000000AD
:10070E0000000000000000000000000000FC0404D7
:10071E00FC00FE5252D25252525E00000000000007
:10072E00000000000000000000000000000F048424
:10073E004F308F929392FE929396800000000000AD
:10074E000000000000000000000000000414A4449B
:10075E00AF14040404F40F24440404000000000049
:10076E00000000000000000000000000124984425A
:10077E003F8141310D030D314181810000000000A8
:10078E00000000000000000000000000001088C4FF
:10079E003300BEAAAAAAAAAABE80000000000000CA
:1007AE00000000000000000000000000020100FF39
:1007BE0000020A120242827F0202020000000000C2
:1007CE00000000000000000000000000202424A40F
:1007DE00FE232220FC04040404FC000000000000A0
:1007EE0000000000000000000000000010080601DC
:1007FE00FF010680631901010933C00000000000EB
:10080E00000000000000000000000000804020906A
:10081E008886808080838C1020408000000000003D
:10082E0000000000000000000000000000804020DA
:10083E001807004080403F0000000000000000004C
:10084E00000000000000000000000000000000E0BA
:10085E00000000FF000000204080000000000000AB
:10086E00000000000000000000000000080403006B
:10087E000040807F0000000000010E00000000001C
:10088E00000000000000000000000000808080805A
:10089E0080808080808080808080800000000000CA
:1008AE00000000000000000000000000000000003A
:1008BE00000000000000000000000000000000002A
:1008CE00000000000000000000000000404020205A
:1008DE00504844434448502020404000000000004F
:1008EE00000000000000000000000000000242E2D4
:1008FE00524A464242425262C202000000000000CA
:10090E000000000000000000000000000000FE02D9
:10091E00121212F2929292929212120000000000A3
:10092E0000000000000000000000000080601F803A
:10093E0040201807004080403F00000000000000EB
:10094E00000000000000000000000000100C24A4B5
:10095E00A4A4A5F6A4A4A4A424140C0000000000D2
:10096E00000000000000000000000000020202FA79
:10097E004A4A4A4F4A4A4AFA02020200000000005E
:10098E000000000000000000000000004040444451
:10099E00546445C644645444444040000000000082
:1009AE00000000000000000000000000000404042D
:1009BE00040404FF04040404040400000000000006
:1009CE000000000000000000000000008484848409
:1009DE009F8484F484849F848484840000000000B7
:1009EE00000000000000000000000000000000FCFD
:1009FE0044444447444444FC00000000000000000E
:100A0E00000000000000000000000000040404FCD0
:100A1E008484858684848484840404000000000019
:100A2E000000000000000000000000004038000040
:100A3E003C4040424C404070040830000000000032
:100A4E000000000000000000000000000000101177
:100A5E00161010F01010141310000000000000000B
:100A6E0000000000000000000000000081814141F4
:100A7E0021110D030D112141418181000000000063
:100A8E000000000000000000000000004030CF0811
:100A9E0028182424FE2220FF22AC20000000000093
:100AAE0000000000000000000000000000007F2099
:100ABE00100044847F22100F3641F0000000000029
:100ACE000000000000000000000000001010F01FE9
:100ADE0010F000808282E2928A8680000000000080
:100AEE000000000000000000000000004022150879
:100AFE001661000040807F00000000000000000032
:100B0E0000000000000000000000000000FC0404D3
:100B1E00FC00C2BA828282FE828280000000000047
:100B2E00000000000000000000000000000F0404A0
:100B3E000F2010080442817F00000000000000001A
:100B4E0000000000000000000000000000FC040493
:100B5E00FC0000FC04060544847C0000000000003C
:100B6E00000000000000000000000000000F040460
:100B7E000F0010131212125292423E00000000009B
:100B8E000000000000000000000000004042CC0009
:100B9E0000FC5655FC801010FF10100000000000E5
:100BAE0000000000000000000000000000003F10E8
:100BBE002A134A867F0043807F0000000000000059
:100BCE0000000000000000000000000000FC040413
:100BDE00FC20104C4B484848C80808000000000094
:100BEE00000000000000000000000000000F0404E0
:100BFE000F00304844424241404070000000000067
:100C0E00000000000000000000000000104C4444F2
:100C1E00444445C64444444444540C00000000007F
:100C2E0000000000000000000000000040404444AE
:100C3E004444447F44445464444040000000000057
:100C4E00000000000000000000000000000000FE98
:100C5E00020202E2020202FE00000000000000009A
:100C6E0000000000000000000000000000008047AF
:100C7E0020100C0308102047800000000000000028
:100C8E0000000000000000000000000000FC00005A
:100C9E00FF004020D8171010F010100000000000C8
:100CAE00000000000000000000000000000F040221
:100CBE00FF00804021160816214080000000000031
:100CCE000000000000000000000000004262524AD6
:100CDE00C6425262C200F80000FF00000000000091
:100CEE0000000000000000000000000040C444446A
:100CFE007F24242420000F40807F0000000000008D
:100D0E000000000000000000000000004022140857
:100D1E00F42210CC4B48C80808F800000000000070
:100D2E0000000000000000000000000008448241A6
:100D3E003F00000F04044F80403F00000000000001
:100D4E0000000000000000000000000000F80C0B86
:100D5E000808F840308F080808F80000000000006E
:100D6E00000000000000000000000000007F2121B4
:100D7E0021217F0000004380403F00000000000062
:100D8E00000000000000000000000000080889EECE
:100D9E0098000000FF0000000000000000000000AE
:100DAE00000000000000000000000000020100FF33
:100DBE00000300003F40404040780000000000006B
:100DCE00000000000000000000000000403C10FF8A
:100DDE00101020108F7808F808F8000000000000AE
:100DEE00000000000000000000000000020602FFEC
:100DFE000101044221184681403F0000000000001E
:0C0E0E00000000000000000000000000D8
:101D0300E4FDFCFE121E5AE4FDFC2275F010E52CE6
:101D1300A429F582E435F0F583E58222AC07121F8E
:101D2300CD7F78121F09021F9CAF28121EBDE4F954
:0B1D33002224B0FFE433FEE4FDFC229C
:091FCD00D290D291C291C290227F
:07000300D290C291D29122BC
:0B1F9100121F09121F9CAF04121F0951
:051F9C00D290C290226A
:101F0900C290E4FEAD07530580BD8004D2918002E2
:0E1F1900C291EF25E0FFD290C2900EBE08E606
:011F27002297
:0B1FAE00121D1FE4FF121F9102000330
:0B1FB900121D1F7F40121F9102000349
:101E3F0075F040E5291219BDE58229F582E4358355
:0B1E4F00F583E493FF7E007D017C0022
:101E5A00AB07AA06ED4C6003021FB9AF03121FAE0F
:011E6A002255
:101F2800D3EF9400EE940040147D657C18ED1D708D
:0D1F3800011CED4C70F7EF1F70E61E80E3FA
:011F45002279
:101EBD00A907ED121D34121E5AE954F0C4540F7EB9
:101ECD00004410FFE4FDFC121E5AE9540FFF7E0082
:061EDD00E4FDFC021E5AA8
:101E1100E4F9E9121D34121D07FF121D067F10FEA1
:101E2100121E5AE4F5277D017C00E4FFFE121E5AC2
:0D1E31000527E527C3948040ED09B908D5C9
:011E3E002281
:041BF7008F288D297D
:101BFB00E4F52CF9F52DEB24E0F52CEB24D0F52DA9
:101C0B00E52B64107031121EBDE4F9121D0E244A2F
:101C1B00F582E5833400121E4F09B908EEE529045D
:101C2B00FD121D2C121D0E2452F582E58334001279
:101C3B001E4F09B908EE22AD29121D2CE52D75F0AA
:101C4B0006A4240EF582E43400F583121E4709B96D
:021C5B0006EA97
:011C5D002264
:061DDF008F278D288B29DF
:101DE500E4F52A121EBDE4F990021A121E3F052AD7
:101DF50009B910F4E52804FDAF27121EBDE4F990DA
:0B1E0500023A121E3F052A09B910F432
:011E100022AF
:041C5E008F238B2520
:101C6200E4F52AF52BE5265407700BE5261313132A
:101C7200541FF52D800AE526131313541F04F52D66
:101C82008D2DE52DC395265034AD2DAF23121EBDEB
:101C920085232CE52CC39525501FAB27AA28A929FB
:101CA200052BE52BAE2A7002052A14F5828E8312CB
:0D1CB20018F6121E53052C80DA052D80C592
:011CBF002202
:101AF3007FAE121D03FFFE121E5A7F10121D037FBD
:101B030040121D067FB0121D067F81121D067FFF46
:101B1300121D067FA1121D067FA6121D067FA812A5
:101B23001D067F3F121D067FC8121D067FD3121D9F
:101B330006FF121D067FD5121D067F80121D067F2C
:101B4300D8121D067F05121D067FD9121D067FF1CF
:101B5300121D067FDA121D067F12121D067FDB128D
:101B63001D067F30121D067F8D121D067F14121D68
:071B7300067FAFFE021E5ABF
:101F5A005389F0438901758C73758A60D28CD2A932
:031F6A00D2AF22D1
:071FD600C28CC2A9C2AF22B8
:100E1A000000000000000000C0C0C0C030300C0C50
:100E2A000C0C030303030303030303030303030376
:100E3A000C0C0C0C3030C0C0C0C000000000000018
:100E4A0000000000C0C03C3C0303FCFC030300009C
:100E5A000000000000000000000000000000000088
:100E6A0000000000000000000303FCFC03033C3CFC
:100E7A00C0C00000FCFC030300000000FFFF0000EC
:100E8A00000000003C3C00000000C0C0C0C0C0C060
:100E9A0000000000003C3C0000000000FFFF0000D2
:100EAA0000000303FCFC03030C0C0C0C03030F0FE0
:100EBA003030C0C0C0C00000000000000000333362
:100ECA000000000000000000C0C0C0C030300F0F9A
:100EDA0003030C0C0C0C03030000000000000000CC
:100EEA0000000000000000000303030303030303E0
:100EFA0003030303030303030303000000000000CA
:100F0A0000000000000000000000000000000000D7
:100F1A000000C0C0C0C030300C0C0C0C030303032B
:100F2A00030303030303030303030C0C0C0C303009
:100F3A00C0C0C0C000000000000000000000C0C027
:100F4A003C3C0303FCFC030300000000000000001B
:100F5A000000000000000000000000000000000087
:100F6A0000000303FCFC03033C3CC0C00000FCFC83
:100F7A00030300000000FFFF0000000000003CBC6B
:100F8A0000000000C0C0C0C0C0C00000000000BC1B
:100F9A003C0000000000FFFF000000000303FCFC0F
:100FAA0003030C0C0C0C03030F0F3030C0C0C0C07D
:100FBA00000200000000406033336040000000007F
:100FCA000002C0C0C0C030300F0F03030C0C0C0C61
:100FDA000303000000000000000000000000000001
:100FEA0000000303030303030303030303030303CD
:100FFA0003030303000000000000000000000000DB
:10100A00000000000000000000000000C0C0C0C0D6
:10101A0030300C0C0C0C0303030303030303030318
:10102A00030303030C0C0C0C3030C0C0C0C000001A
:10103A000000000000000000C0C03C3C0303FCFCB0
:10104A000303000000000000000000000000000090
:10105A000000000000000000000000000303FCFC88
:10106A0003033C3CC0C00000FFFF03030000000074
:10107A00FFFF0000000000000C0C0C000000C0C0C4
:10108A00C0C0C0C0000000000C0C0C000000000032
:10109A00FFFF000000000303FFFF00000303030338
:1010AA0003030F0F3030C0C0C0C0000000000000B2
:1010BA00183033333018000000000000C0C0C0C030
:1010CA0030300F0F03030303030300000000000086
:1010DA0000000000000000000000000003030303FA
:1010EA0003030303030303030303030303030000CC
:1010FA00000000000000000000000000000038446A
:10110A008281814101010204081010101010101090
:10111A0010101008040201010181818244381E2145
:10112A0040404040404020201010080808080808A5
:10113A00080808081020204041404020110EF01CE9
:10114A0002020301010101010302061C30E08000D2
:10115A000000000001070C091B12342040404040E7
:10116A0020203C246744C890503018E8282F292BA7
:10117A00FC2CFC2B292F28E818007F80808080FF18
:08118A0080FF808080807F005F
:101E8100071600000000000000011D00011E00C136
:031E910081C1000C
:101EE3007526057527FF22051FE51FD3940422AE2F
:101EF30025AF267C007D0A02196875281075290E06
:061F03007B32E4FDFF2229
:061CC0008B238A24892514
:101CC600E4F527F526AB23AA24A925852682758364
:101CD600001218F6FE6003752701E5276015E52654
:101CE60075F006A42455FFEE2430FB752B01E4FDA8
:0C1CF600121BF70526E526D3940640C912
:011D020022BE
:061D3E008B238A24892595
:101D44007F06AB23AA24A9258F827583001218F677
:101D5400D3940A401BEF7C0024FFF582EC34FFF59A
:101D64008374FF1219238F82758300740A12192356
:021D7400DFD0BE
:011D7600224A
:101DAC007F14801EE5A0F46002800F7B0B121DD502
:101DBC007E00121F28E5A0F46003021E117B0C129A
:101DCC001DD57E00121F2880DB7D067F38121DDF9B
:031DDC007F0A2259
:101D7700E4F51FE51FC454F02418FFAB1F7D0212C2
:101D87001DDFE51FC454F02410FFE51F2405FB7D6C
:101D970004121DDF121EEA40DA7B0A7D047F6012FF
:051DA7001DDF021DAC70
:101693008F248C258D26121E117B0D7D037F101246
:1016A3001DDF7B157D037F20121DDF7B167D037FEE
:1016B30030121DDF7B137D037F40121DDF7B177DFF
:1016C300037F50121DDF7B187D037F60121DDF75C2
:1016D3002B107B3A7D037F70121BF7E4F51FE51F88
:1016E30033333354F8FFC374489FFFC007121EF20D
:1016F300ED2430FB752B10D0077D05121BF7121E4E
:10170300F28E258F26121EEA40D4E52414602D1490
:10171300605414606914607C240460030217AEE40F
:10172300F51FE51FC454F02418FFE51F240FFB7DAC
:1017330001121DDF121EEA40E90217AE7B197D017B
:101743007F20121DDFE4FB7D017F30121DDF7B1A3A
:101753007D017F40121DDF7B1B7F501217CF7B3C27
:101763007D017F6080427B1C7D017F30121DDF7B0A
:101773001D7F401217CF7B217D017F50802A7B1E66
:101783007D017F28121DDF7B1F1217BB7B3C7D0170
:101793007F5880147B207D017F28121DDF7B21125F
:1017A30017BB7B287D017F58121BF77F327E001207
:1017B3001F28121DAC021D777D017F38121DDF7BB0
:1017C300137D017F48121DDF752B10227D01121D31
:0517D300DF752B102260
:10119200752101E4F51FE4251FFFE43428FE121F28
:1011A20046EFF460077416251FF8A607051FE51F12
:1011B200D3940640E17E2C1214ABF4600B7F007EC8
:1011C2002C121F468F1D8003E4F51D7E2E1214ABD8
:1011D200F4600B7F007E2E121F468F1E800C7D1442
:1011E2007F007E2E121F6D751E147F007E30121F2F
:1011F20046EF64017057FF7E30121F807F20121469
:101202007A7B2A7D027F30121DDF7B2B7D027F409D
:10121200121DDF7B137D027F50121DDF7B197D04BF
:101222007F18121DDFE4F51FE51FC454F02428FFC8
:10123200E51F242CFB7D04121DDF051FE51FD3943F
:101242000340E57F147E00121F28121DACE51DC36A
:101252009405404BC201E51D940A7B227D027F3832
:10126200401E121DDF7B1312146A7F581214727F04
:1012720068121472121EE375280F7529140212FAED
:10128200121DDF7B2212148E752B107B3C7D027F98
:1012920058121BF7121EE375280E75291A8059E59C
:1012A2001EC394054034E51ED3942D502D121EE327
:1012B20075280E75291A1214A27F3812147A7B230C
:1012C20012148E7B247D027F58121DDF752B107B3A
:1012D2003C7D027F68121BF78057E51EC3940550C0
:1012E2001C7B257D027F38121DDF7B2512146A12BA
:1012F2001EE375280F7529141214A28034E51ED33B
:10130200942D402D121EE3121EFD121C5E7B287DC1
:10131200027F38121DDF7B297D027F48121DDF7B91
:101322000D7D027F58121DDF7B237D027F68121D17
:10133200DFE5A064FB60FA7526077527FF752811A3
:101342007529087B2E7F0E1214967528117529486F
:101352007B527F3C1214967528117529747B6F7D20
:10136200057F60121C5EE5A0B4FD11E521C3940265
:10137200500A0521E5A064FD703780F8E5A0B4FBB2
:1013820011E521D39400400A1521E5A064FB7021E8
:1013920080F8E5A0B4F70DE5A064F760FAAF21127A
:1013A20014B2800DE5A0B4EF08E5A064EF60FA8006
:1013B200507F087E00121F28E5A0B4FD11E521C36D
:1013C2009402500A0521E5A064FD703D80F8E5A075
:1013D200B4FB11E521D39400400A1521E5A064FB7A
:1013E200702780F8E5A0B4F70DE5A064F760FAAFC6
:1013F200211214B28013E5A0B4EF0EE5A064EF60F1
:10140200FA121E11121D77803CE52170097F0E121F
:1014120014827F1E8022E521B401097F3C121482CE
:101422007F4C8014E521B402127B0C7D057F601293
:101432001DDF7B0C7D057F70121DDF7F087E001291
:101442001F28021339A2007201401CE51E940A40B3
:101452001674F6251EF51E7F007E2E121F80AD1E0D
:071462007F007E2E121F6DBA
:10146900227D027F48121DDF227B257D02121DDFAE
:10147900227B0D7D02121DDF227B0C7D05121DDFF3
:101489007B0C7D05227D027F48121DDF227D05121E
:101499001C5E7526077527FF227B32E4FDFF121CAF
:0914A9005E227F00121F46EF22B3
:0214B2008F2287
:1014B400C202E4F51F7416251FF8E66004D2028008
:1014C40007051FE51FB403EDE5227040E519C39439
:1014D400024002D2022002030215CD1216277B0D10
:1014E40012166194F05008740A251EF51E8003122A
:1014F4001675121650E51DC39405400674FB251D90
:10150400F51D121682151915190215CDE52264016F
:10151400705FE5197007E51AC394054002D20220F2
:1015240002030215CDD200121EE3121EFD121C5E30
:101534007B237D027F38121DDF7B237D027F4812CF
:101544001DDF7B2712166194F550087405251EF5DE
:101554001E8003121675121650E51DC3940540062D
:1015640074FB251DF51D12168274FB251AF51A80CD
:1015740058E52264027052E519C394054002D20270
:101584003002461216277B287D027F58121DDF7B0E
:10159400297D027F68121DDFE51EC394D2500874B2
:1015A40028251EF51E800C7D017F007E30121F6DE4
:1015B400751E147F007E2E121F80AD1E7F007E2EAE
:1015C400121F6D74FB2519F5197B007A0079161228
:1015D4001D3EE4F51FE51F25E025E0FFC3747F9F52
:1015E400FF752B017B20E4FD121BF7051FE51FD3BC
:1015F400940740E17B007A007916121CC07F007EBC
:1016040028121F80E4F51FE4251FFFE43428FE742C
:1016140016251FF8E6FD121F6D051FE51FD394065E
:0216240040E59F
:1016260022D2007526057527FF75281075290E7BB1
:1016360032E4FDFF121C5E7B267D027F38121DDF21
:101646007B267D027F48121DDF227F007E2E121F21
:1016560080AD1E7F007E2E121F6D227D027F5812E6
:101666001DDF7B247D027F68121DDFE51EC3227D00
:10167600017F007E30121F6D751E14227F007E2CA6
:0D168600121F80AD1D7F007E2C121F6D22F3
:0D1FA100E4F5E7F5E5F5E675E380F5E422EB
:071FDD0075E64675E6B92226
:101F460075E78175E5018FE48EE3121FDD00AFE2D0
:031F5600121FA1B6
:011F59002265
:101F6D0075E78175E5028FE48EE38DE2121FDD00CA
:031F7D00021FA19F
:101F800075E78175E5038FE48EE3121FDD00021F04
:011F9000A1AF
:101A7300021B7AE493A3F8E493A34003F68001F2F4
:101A830008DFF48029E493A3F85407240CC8C33374
:101A9300C4540F4420C8834004F456800146F6DF43
:101AA300E4800B0102040810204080901E6BE47E4A
:101AB300019360BCA3FF543F30E509541FFEE49338
:101AC300A360010ECF54C025E060A840B8E493A3FF
:101AD300FAE493A3F8E493A3C8C582C8CAC583CA2A
:101AE300F0A3C8C582C8CAC583CADFE9DEE780BEE2
:011E9400004D
:1018F600BB010CE58229F582E5833AF583E02250A7
:1019060006E92582F8E622BBFE06E92582F8E222F0
:0D191600E58229F582E5833AF583E493220A
:10192300BB010FF8E58229F582E5833AF583E028C8
:10193300F0225009C58229F8E58226F622BBFE096A
:10194300C58229F8E22582F222F8EA2583F583E9A4
:03195300932822B4
:10195600EF8DF0A4A8F0CF8CF0A428CE8DF0A42EA5
:02196600FE225F
:10196800BC000BBE0029EF8DF084FFADF022E4CC63
:10197800F875F008EF2FFFEE33FEEC33FCEE9DEC2C
:10198800984005FCEE9DFE0FD5F0E9E4CEFD22ED72
:10199800F8F5F0EE8420D21CFEADF075F008EF2FBC
:1019A800FFED33FD4007985006D5F0F222C398FDAD
:0519B8000FD5F0EA224A
:0C19BD00A42582F582E5F03583F5832235
:00000001FF
